:020000040800F2
:100000001807002065020008F711000829100008F1
:10001000F51100085B040008B5130008000000009B
:10002000000000000000000000000000FB110008BC
:100030005D04000800000000F9110008FD1100082F
:100040007F0200087F0200087F0200087F0200088C
:100050007F0200087F0200087F0200087F0200087C
:100060007F0200087F0200087F0200087F0200086C
:100070007F0200087F0200087F0200087F0200085C
:100080007F0200087F0200087F0200087F0200084C
:100090007F0200087F0200087F0200087F0200083C
:1000A0007F0200087F0200087F0200087F0200082C
:1000B0007F0200087F0200087F0200087F0200081C
:1000C0007F0200087F0200087F0200087F0200080C
:1000D0007F0200087F0200087F0200087F020008FC
:1000E0007F0200087F0200087F0200087F020008EC
:1000F0007F0200087F0200087F0200087F020008DC
:100100007F0200087F0200087F0200087F020008CB
:100110007F0200087F0200087F0200087F020008BB
:100120007F0200087F0200087F0200087F020008AB
:100130007F02000800000000000000007F020008AD
:100140007F0200087F0200087F0200087F0200088B
:100150007F0200087F0200087F0200087F0200087B
:100160007F0200087F0200087F0200087F0200086B
:100170007F0200087F0200087F02000800000000E4
:10018000000000007F0200080000000000000000E6
:100190007F02000800000000000000007F0200084D
:1001A0000000000000000000000000007F020008C6
:1001B0007F0200087F0200087F0200087F0200081B
:1001C0007F02000800F002F800F03CF80AA090E876
:1001D000000C82448344AAF10107DA4501D100F002
:1001E00031F8AFF2090EBAE80F0013F0010F18BF93
:1001F000FB1A43F001031847381900005819000092
:10020000103A24BF78C878C1FAD8520724BF30C842
:1002100030C144BF04680C60704700000023002414
:1002200000250026103A28BF78C1FBD8520728BF06
:1002300030C148BF0B6070471FB501F062FC1FBDA5
:1002400010B510BD00F0CFF81146FFF7F5FF01F033
:100250003FF900F0EDF803B4FFF7F2FF03BC00F044
:10026000F5F800000948804709480047FEE7FEE727
:10027000FEE7FEE7FEE7FEE7FEE7FEE7FEE7FEE756
:1002800004480549054A064B7047000099120008CA
:10029000C5010008180100201807002018030020DD
:1002A0001803002053EA020C00F069802DE9F04B9E
:1002B0004FF00006002B1FBFB3FA83F503FA05F4D5
:1002C00024FA05F65E4012BF1643B2FA82F502FA2E
:1002D00005F4C5F120051EBF22FA05FC44EA0C0412
:1002E000203556EA044C4FEA144418BF641C4FF002
:1002F00000084FF00009904271EB030C39D300293C
:1003000019BFB1FA81F701FA07F6B0FA80F700FADF
:1003100007F6C7F120071EBF20FA07FC46EA0C06C5
:100320002037B6FBF4FCA7EB0507103F07F01F0BC7
:10033000CBF120060CFA0BFB2CFA06F644BFB346B1
:100340000026202FA4BF5E464FF0000B5BEA060C90
:1003500008BF4FF0010B19EB0B09ABFB027C48EB1C
:100360000608C01B06FB02CC0BFB03CC71EB0C0197
:10037000C1E70B46024641464846BDE8F08B13B53F
:100380004FF000004FF00001AFF30080BDE81C40CB
:1003900070474FF0000200B5134694469646203948
:1003A00022BFA0E80C50A0E80C50B1F12001BFF42E
:1003B000F7AF090728BFA0E80C5048BF0CC05DF894
:1003C00004EB890028BF40F8042B08BF704748BFE2
:1003D00020F8022B11F0804F18BF00F8012B704756
:1003E000704770477047754600F02CF8AE46050020
:1003F0006946534620F00700854618B020B5FFF740
:100400003FFFBDE820404FF000064FF000074FF0DF
:1004100000084FF0000B21F00701AC46ACE8C00922
:10042000ACE8C009ACE8C009ACE8C0098D4670472B
:1004300010B50446AFF300802046BDE81040FFF73A
:100440000ABF000000487047B8000020014918208A
:10045000ABBEFEE7260002007047FEE770470000D3
:1004600070B5044600F00AF90546601C02D0044845
:100470000078044400F002F9401BA042FAD370BD9A
:10048000100000202DE9F84FDFF8ACA10022012474
:1004900003254FF00F090AF1040BAAF1040E00BF67
:1004A0000B6804FA02F63340B3426ED10F7907F0BD
:1004B0000307012F01D0022F16D187684FEA4208A7
:1004C00005FA08FC27EA0C07D1F80CC00CFA08FC66
:1004D0004CEA070CC0F808C04768B7430E79C6F36A
:1004E000001696403E4346600E79F643B6070AD0A2
:1004F000C6684FEA420C05FA0CF7BE438F6807FA4C
:100500000CF73743C7600E7906F00306022E10D1B0
:10051000D60800EB8608D8F8206057074FEAD76C5A
:1005200009FA0CF7BE430F6907FA0CF73743C8F80E
:10053000207006684FEA420C05FA0CF7BE430F79AB
:1005400007F0030707FA0CF7374307604E6816F405
:10055000403F6BD0394E376847F480473760366884
:1005600022F0030706F480460096354E07EB060C92
:10057000DCF8086897074FEA177809FA08F7BE43CE
:10058000304FB84202D100271FE04FE02E4FB84253
:1005900001D1012719E02D4FB84201D1022714E003
:1005A0002B4FB84201D103270FE02A4FB84201D1A7
:1005B00004270AE0284FB84201D1052705E0274F5C
:1005C000B84201D1062700E0072707FA08F73743AA
:1005D000CCF80878DAF800605746D1F804C09E439A
:1005E0005FEACC2C00D51E433E60DBF800605F461E
:1005F000D1F804C09E435FEA8C2C00D51E433E60B8
:10060000DEF800607746D1F804C09E435FEA8C3C78
:1006100000D51E433E60084F083F3E68D1F804C035
:100620009E435FEACC3C00D51E433E60521C102A1C
:10063000FFF436AFBDE8F88F083C01404438024073
:100640000030014000000240000402400008024067
:10065000000C02400010024000140240001802404A
:10066000426921EA02030A4043EA0241816170477C
:100670000AB1816170470904FBE700000148806806
:10068000704700001000002070B5040025D094F8D9
:100690003D00002520B984F83C50204600F0B8F811
:1006A000242084F83D002068016821F001010160E8
:1006B0002068016841F4004101602068016821F46C
:1006C0000041016000F000FA4D4A6168914201D892
:1006D0004C4900E04C49884201D2012070BD4B4991
:1006E0002368B0FBF1F15E6826F03F060E435E60C2
:1006F0006368934206D94FF4967359434FF47A7363
:10070000B1FBF3F12368491C1E6A26F03F06314312
:1007100019626168914210D84900401EB0FBF1F2A5
:10072000521CC2F30B02042A01D2042022E0B0FBC7
:10073000F1F0401CC0F30B001CE0A268F2B301EB27
:10074000C10303EB0116431EB3FBF6F35B1C43F43A
:1007500080431B0549D092B301EBC10202EB0111AA
:10076000401EB0FBF1F0401CC0F30B0040F4804091
:1007700040F400402168CA694CF6FF739A43104365
:10078000C861D4E9071001432068026822F0C00262
:1007900011430160D4E9030101432068826848F2F3
:1007A000FF339A4311438160D4E90501084321686E
:1007B000CA6822F0FF021043C86001E00EE016E0B4
:1007C0002068016841F0010101602564202084F85F
:1007D0003D00256384F83E50002070BD01EB4106CA
:1007E000431EB3FBF6F35B1CB3E70120C2E701EB4A
:1007F0004101401EB0FBF1F0401CC0F30B00B7E715
:10080000A086010080841E0000093D0040420F00C8
:1008100010B586B0044614216846FFF7BAFD1349A7
:100820002068884220D112480021026842F002026A
:100830000260006800F002000590C02000901220C5
:10084000CDE9010103200390042004906946094882
:10085000FFF718FE06481030016841F400110160EE
:10086000006800F40010059006B010BD0054004070
:100870003038024000040240024881680278114486
:1008800081607047100000200B4810B5016841F4EA
:1008900000710160016841F480610160016841F408
:1008A00080710160032000F063F8002000F006F87A
:1008B00000F024F8002010BD003C024070B50D4D42
:1008C00004464FF47A712878B1FBF0F00A490968C0
:1008D000B1FBF0F000F02EFB48B9102C07D200223B
:1008E0002146501E00F024F800206C6070BD0120ED
:1008F00070BD0000100000201C0000200B4882B0DA
:10090000016841F480410160006800F4804000907B
:100910000648001F016841F080510160006800F046
:1009200080500090072002B000F022B84438024006
:10093000F0B40E4B1B680C46C3F30223C3F107054A
:10094000042D00D90425191D072901D2002300E038
:10095000DB1E012606FA05F1491E214099409E4002
:10096000761E16403143F0BC00F025BD0CED00E0D2
:10097000064900F0070208684FF6FF03184040EAF6
:100980000220034A10430860704700000CED00E0AD
:100990000000FA052DE9F0470E46050065D0DFF8A6
:1009A0001481D8F80000F7B200F00F00B04207D26F
:1009B00088F80070D8F8000000F00F00B04254D161
:1009C00028683D4C810712D5400703D5206840F4C4
:1009D000E05020602878000703D5206840F460408C
:1009E00020602068A96820F0F00008432060287883
:1009F000C0072DD0304968680839012812D0022874
:100A000013D0032811D00968890700292DDA21683D
:100A100021F0030101432160FFF730FE814641F2DE
:100A2000883A0EE009688903EFE709688901ECE775
:100A3000FFF724FEA0EB0901514502D90320BDE8D0
:100A4000F0872068696800F00C00B0EB810FEFD1EF
:100A5000D8F80010404601F00F01B14207D90770E5
:100A6000006800F00F00B04201D00120E7E72878CD
:100A7000400705D52068E96820F4E050084320606D
:100A80002878000706D52068296920F4604040EAEC
:100A9000C100206000F038F82168084AC1F3031152
:100AA000515CC8400649086006480068FFF706FF29
:100AB0000020C4E7003C024008380240161B000832
:100AC0001C00002014000020044805490068096843
:100AD000044AC1F38221515CC84070471C000020C9
:100AE00008380240261B00080448054900680968C8
:100AF000044AC1F34231515CC84070471C000020D9
:100B000008380240261B0008224810B5006810F083
:100B10000C02214815D04110042A11D01D4C241F6D
:100B2000082A0FD00C2A0CD12268236802F03F0259
:100B30005B0221D52068C0F38810A0FB010120E0F2
:100B4000084610BD2268236802F03F025B0205D50B
:100B50002068C0F38810A0FB010104E02168C1F304
:100B60008811A1FB00010023FFF79CFB2168C1F362
:100B70000141491C49000AE02168C1F38811A1FB29
:100B800000010023FFF78EFB2168C1F30271B0FB67
:100B9000F1F010BD083802400024F4002DE9F84FB0
:100BA00004007DD0DFF878B32078ABF10407C007EC
:100BB000A7F1040550D0DBF800105846C1F38101BD
:100BC00001290FD00168C1F38101022902D13968DE
:100BD000490207D40068C0F38100032809D13868AE
:100BE000400206D52868800336D560680028D8D032
:100BF00032E06068B0F5803F10D0B0F5A02F2868D3
:100C000010D020F480302860286820F480202860EC
:100C10006068A0B1FFF732FD06460CE0286840F49A
:100C20008030F4E740F480202860F7E7FFF726FDE6
:100C3000801B642876D828688003F7D50CE0FFF77E
:100C40001DFD064605E000BFFFF718FD801B642868
:100C5000F0D828688003F7D42078DFF8C89280079E
:100C60004FF0000A44D5DBF80010584611F00C0F85
:100C70000FD00168C1F38101022902D1396849020C
:100C800007D50068C0F3810003280AD13868400204
:100C900007D42868800715D5E068012800D111E045
:100CA0003AE1E068B0B10120C9F80000FFF7E6FCC6
:100CB000064604E0FFF7E2FC801B0228BAD8286849
:100CC0008007F7D52868216920F0F80040EAC100C4
:100CD00028600DE0C9F800A0FFF7D0FC064604E04C
:100CE000FFF7CCFC801B02281CD828688007F7D4AB
:100CF0002078000727D5DFF828828B48616908F142
:100D00006C0881B101210160FFF7B8FC064604E0E0
:100D1000FFF7B4FC801B022804D8D8F80000800735
:100D2000F6D510E089E0C0F800A0FFF7A7FC064662
:100D300005E000BFFFF7A2FC801B02287DD8D8F891
:100D400000008007F6D42078400769D574484FF03A
:100D5000000838300068C0000BD471483830016892
:100D600041F08051016000684FF0010800F08050B0
:100D700000906E4E3068C00511D4306840F4807029
:100D80003060FFF77BFC009006E000BFFFF776FCC9
:100D90000099401A022850D83068C005F6D5604E38
:100DA000A068683601280FD00528306810D020F0E0
:100DB00001003060306820F004003060A068B8B1F5
:100DC000FFF75CFC00900FE0306840F00100F4E7B2
:100DD00040F004003060F7E7FFF750FC0099411A3B
:100DE00041F28830814264D830688007F4D50EE043
:100DF000FFF744FC009007E0FFF740FC0099411A20
:100E000041F28830814254D830688007F4D4B8F178
:100E1000000F05D042483830016821F08051016050
:100E2000A069A8B3DBF80010C1F38101022947D003
:100E30000228C9F860A005D000E03AE0FFF71EFCE8
:100E4000044639E0FFF71AFC064604E0FFF716FCFB
:100E5000801B02282DD828688001F7D4F4E9070107
:100E60000843E168324A490802EB0141A26841EABD
:100E700082110843217C40EA0160217D40EA017033
:100E800038600120C9F86000FFF7F8FB044606E06F
:100E900044E000BFFFF7F2FB001B022809D82868D6
:100EA0008001F7D53AE000BFFFF7E8FB001B0228FE
:100EB00002D90320BDE8F88F28688001F4D42DE022
:100EC0000128F7D03868E26900F48001914223D10B
:100ED000226A00F03F0191421ED147F6C071626A5A
:100EE0000140B1EB821F17D1A26A4FF0FF3300F42B
:100EF000403103EB5202B1EB024F0DD194F82C209C
:100F000000F07061B1EB026F06D194F8301000F080
:100F1000E040B0EB017F01D00120CBE70020C9E722
:100F20000838024000004742800E474200700040EF
:100F30000000FFFF10B5401EB0F1807F01D30120FB
:100F400010BD4FF0E02460610F21601700F033FA0C
:100F50000020A06107202061002010BD70B50400B2
:100F600004D094F83D00002510B106E0012070BDCA
:100F700084F83C50204600F023F8242084F83D00FB
:100F80002068C16821F40051C160204600F08CF94E
:100F90002068016921F4904101612068416921F0D4
:100FA0002A0141612068C16841F40051C160256493
:100FB000202084F83D0084F83E00002070BD000031
:100FC00010B586B0044614216846FFF7E2F91349CC
:100FD0002068884220D112480021026842F4003281
:100FE0000260006800F4003005900D481038026877
:100FF00042F001020260006800F0010005900C2040
:1010000000900220CDE90101032003900720049005
:1010100069460448FFF736FA06B010BD00440040A8
:101020004038024000000240FEE700000549086029
:10103000081D01688907FCD500680248083000686F
:101040007047000010540040F0B5234E224D083E7A
:10105000214F183D341D1346012A306005D0206809
:101060008007FCD5206838681DE020688007FCD523
:10107000286820F48060286020683868286840F478
:101080000070286020684006FCD530689A1A20E07D
:1010900020684006FCD53068D71AC855286840F447
:1010A000806028605B1E022BF2DC20684006FCD5C5
:1010B0003068D71AC855286820F4806028602868EE
:1010C00040F4007028605B1E20684006FCD5306844
:1010D000D21A8854F0BD0000185400400748016837
:1010E00041F480610160016841F48071016003484E
:1010F00014300168C907FCD070470000005400405C
:101100000248016841F400710160704700540040DA
:1011100005490A681206FCD5034A121F10600868C8
:101120004007FCD5704700001454004010B50A4A2F
:1011300013681B06FCD5084B1B1F41B1146824061D
:10114000FCD510F8014B1C60491EC9B2F5E71068C8
:101150004007FCD510BD00001454004030B587B0E6
:1011600014216846FFF715F91F480024016841F073
:1011700004010160016801F004010591016841F07A
:1011800080010160016801F080010591016841F072
:1011900001010160016801F001010591016841F060
:1011A000020101600068114D00F00200059000226C
:1011B00020212846FFF75CFA4FF4005000904FF4CE
:1011C0000410CDE9010469460948FFF75BF92020C6
:1011D00000900120CDE90104694628460394FFF7F9
:1011E00051F907B030BD0000303802400000024025
:1011F00000080240FEE7FEE770477047FFF73CBB80
:1012000030B593B034216846FFF7C3F814210DA818
:10121000FFF7BFF81E480025016841F080510160CA
:10122000006800F0805012901A48016821F4404193
:1012300041F4804101600068022400F440401290B3
:10124000012003901020009406940490CDE90750EB
:101250004FF4A87009900420CDE90A0468460C9464
:10126000FFF79CFC08B172B6FEE70DA90F2081E8DC
:1012700031004FF48050CDE9100502210DA8FFF791
:1012800089FB002801D072B6FEE713B030BD000024
:1012900040380240007000400248016841F470018B
:1012A0000160704788ED00E070B504460068016990
:1012B000E26821F44051114301612169A068E269AB
:1012C00008436169114308432168CA6849F20C6305
:1012D0009A430243CA6020684169A26921F44071BF
:1012E0001143416131492068884202D03049884227
:1012F00002D1FFF7F9FB01E0FFF7E6FBE26900230B
:10130000192164253226B2F5004F626828D0A0FB6F
:101310000101930F9200FEF7C5FF0146B0FBF5F007
:101320006FF01802504301EB800006EB0010B0FB99
:10133000F5F000F0F002B1FBF5F002EB0012B1FBAA
:10134000F5F06FF01803584301EB800006EB001036
:10135000B0FBF5F000F00F0021681044886070BD0C
:10136000A0FB010192185B41FEF79CFF0146B0FB18
:10137000F5F00201B1FBF5F06FF01803584301EBF3
:10138000800006EBC000B0FBF5F000F0F80002EBC7
:101390004002B1FBF5F0584301EB800006EBC000C2
:1013A000B0FBF5F000F00700D6E7000000100140A8
:1013B00000140140FEE70907090E002804DB00F1D4
:1013C000E02080F80014704700F00F0000F1E020EA
:1013D00080F8141D7047000008B50020ADF800002B
:1013E00069460F2000F00CF9BDF8000000F022FB68
:1013F0009FED051B53EC112B00F0C4F900F090F9A0
:1014000000EE100A08BD00000000000000002440AB
:1014100008B50020ADF800006946092000F0F0F89A
:10142000BDF800009FED041A00EE100AF8EE400A25
:1014300080EE810A08BD000000007A4401460A20BF
:1014400000F042B901461D2000F03EB908B5002069
:10145000ADF800006946082000F0D2F8BDF80000A1
:1014600000F0E8FA9FED051B53EC112B00F08AF910
:1014700000F056F900EE100A08BD00000000000060
:101480000000244008B50020ADF800006946322075
:1014900000F0B6F8BDF8000008BD4AF65521072057
:1014A00000F012B930B50246002000290FD0072401
:1014B00012F8013B58400823050602D584EA400093
:1014C00000E04000C0B25B1EF6D1491EF0D130BD35
:1014D000FFF7DAF9FFF794FEFFF740FE4248414973
:1014E000002401604149C0E901144FF48041C0E982
:1014F000034144618461C4610462FFF7C5F808B127
:1015000072B6FEE738483A49543001604FF4E13191
:10151000C0E901140C21C460C0E904418461C461C4
:10152000FFF71CFD08B172B6FEE7324D00244FF400
:10153000FA7620212846FFF793F83046FEF790FF11
:10154000641C032CF5DBFFF7A8FF0020FFF776FFF4
:10155000102000F08BF8002000F084F80F2000F03D
:101560006FF89FED250A00F06FF8012000F082F877
:10157000012000F083F80020FFF764FF40F66E7052
:1015800000F080F81D4C4FF47A7500BF00F07EF833
:10159000BCEEC00A10EE101A218000F086F8BCEEF6
:1015A000C00A10EE101A6180FFF732FF84ED030AC3
:1015B000FFF712FFBCEEC00A10EE100AA080FFF782
:1015C00045FFBCEEC00A10EE100A2081FFF75AFF5B
:1015D0000A49E0800A310A2000F012F82846FEF796
:1015E0003FFFD3E70054004020000020801A06008F
:1015F00000440040000002409A9939400000002059
:1016000018B50C460246FFF769FD1620FFF70EFDE0
:101610001046FFF77DFDFFF761FD032269461720A5
:10162000FFF712FDFFF76CFD9DF801004FF6FF710B
:1016300001EA002020809DF800100843208018BD9A
:101640000146132000F040B8DFED050A20EE200A25
:10165000BCEEC00A10EE100A81B2142000F034B8BB
:1016600000007A440146122000F02EB801460B20FB
:1016700000F02AB80146152000F026B801461620D1
:1016800000F022B801460E2000F01EB808B5002078
:10169000ADF8000069460320FFF7B2FFBDF8000077
:1016A00000EE100AB8EE400A08BD08B50020ADF8FB
:1016B000000069460520FFF7A3FFBDF8000000EE1B
:1016C000100AB8EE400A08BD1FB5044616208DF872
:1016D00000008DF801408DF80210080A8DF8030013
:1016E00004216846FFF7DEFE9DF802108DF8081011
:1016F0009DF803108DF809108DF804008DF80A008C
:10170000FFF7ECFC1620FFF791FC2046FFF700FDE9
:10171000032102A8FFF70AFDFFF7F2FC1FBD00003E
:1017200021F00042A2F16052B2F5801F01F00043A7
:1017300028BFD2F17F6C0BD95FEA001C43EAC202DA
:1017400042EB507018BF704728BF20F0010070476F
:10175000B2F5801FBCBF184670474FEA410C1CF51C
:10176000001F02D2084600F0D1B970B500F075F93B
:1017700000000089FFF7F6BF4FF00040A0F58000A1
:10178000704700002DE9C04130B4DFF8A0C23CEA48
:10179000111418BF3CEA131400F0EC8081EA030531
:1017A0001CEA111444EAD57418BF1CEA131500F0A2
:1017B000C780A4EB05044FF0004545EAC12145EA86
:1017C000C32341EA505143EA525304F17F749942D2
:1017D00004F500344FEAC0204FEAC22208BF90420D
:1017E00000F09C804FEA13650FF24016765D4FEAD9
:1017F000134506FB05F7C7F1807706FB07F74FEAAD
:10180000D737A7FB03687642C8F58038A7FB06CE1A
:1018100038BFA8F1010807FB08E64FF0000EA6FB51
:10182000028CE6FB03CEDCF1000CCEF1004E38BF9B
:10183000AEF1010EA6FB0C584FF000074FF000056B
:10184000E6FB0E87A1FB08C6A0FB07CE16EB0E0633
:1018500045F10005E1FB076515F1E04E7EBFA4F5FB
:1018600080345FEA46066D4116F1800745F10005B8
:101870004FEA17274FEA066647EA0567A6F1DE46F4
:10188000B6F1805F4FEA15251FD9384624F0010CC8
:1018900005EBC471BCF1FE6F01EB0C1102D8F0BC7A
:1018A000BDE8008124425CBF01F5801E9EEAC47F32
:1018B00002D4F0BCBDE80081244238D4F0BCA1F1D0
:1018C000C041BDE8004100F016B94FEAD22242EA19
:1018D00043524FEAD323A7FB02864FEAD02040EAC7
:1018E000415007FB03661EEA0E0F4FEAD12105FBAC
:1018F000026658BFA6EB0056B6EB00564FEA520EF2
:101900004EEAC37E18EB0E0E56EB530EBDD518EB08
:1019100002085E417F1C55F10005B6E74FF48015C3
:101920004FF000074FF000064FF00008ADE7F0BCA5
:101930004FF0000001F1C04101F00041BDE800811D
:1019400011EA0C1F0CEA131500D00CE013EA0C1F6F
:1019500000F025804FF00000F0BC81EA030101F0A7
:101960000041BDE80081F0BCBDE8004181EA03010F
:1019700000F0C1B8F0BCBDE8004170B500F06DF8F2
:10198000097EFC3E00F007B881EA03014FF0000039
:1019900001F00041704781EA030100F0ACB8F0BCEF
:1019A000BDE800414FF0000021497047FFFDFBF901
:1019B000F7F5F4F2F0EEEDEBE9E8E6E4E3E1E0DE82
:1019C000DDDBDAD8D7D5D4D3D1D0CFCDCCCBCAC8F4
:1019D000C7C6C5C4C2C1C0BFBEBDBCBBBAB9B8B71B
:1019E000B6B5B4B3B2B1B0AFAEADACABAAA9A8A80E
:1019F000A7A6A5A4A3A3A2A1A09F9F9E9D9C9C9BDC
:101A00009A99999897979695959493939291919086
:101A10008F8F8E8E8D8C8C8B8B8A89898888878717
:101A20008685858484838382828181800000FF078C
:101A30000000F87FB0FA80F310FA03F10AD0C3F186
:101A40001D0303F580634FEA41504FEA035202EB56
:101A5000D12170474FF0000070470EF1020E2EF0BA
:101A6000030E5EF8046B364205D4012A43EB0305EE
:101A700015F5001F12D8012841EB010C1CF5001FC1
:101A80000CD80ED14FEAD17C15F5001F0CEB4C0C95
:101A90000CF1020C08BF4CEBD37C04E04FF0080CB7
:101AA00001E04FEAD37C0CEB4C0526FA05F606F074
:101AB0000706B6F1040C06D20EEB860CBDE87040AA
:101AC0004CF0010C6047DFE80CF0090B02024FF00C
:101AD00000414FF00000A1F5002170BD19461046ED
:101AE000012851EB010418BFD4F5001484BF002075
:101AF00001F0004170BD0808A0F500114FEA310166
:101B000070474FF04070E1EE100A7047FF2141EA44
:101B1000D050C00570470000000000000000010226
:101B20000304060708090000000001020304000086
:101B3000501B0008000000202000000000020008E8
:101B4000701B000820000020F80600001C0200089E
:101B50000000000000000000000000000000000085
:101B60000100000010000000000000000024F4004C
:04000005080001C529
:00000001FF
